:020000040800F2
:100000005008002009290008192800081B280008AA
:100010001D2800081F2800082128000800000000F3
:10002000000000000000000000000000232800087D
:1000300025280008000000002728000829280008BB
:100040003D290008412900084529000849290008E0
:100050004D29000851290008552900085929000890
:100060005D29000861290008652900086929000840
:100070006D290008712900087529000879290008F0
:100080007D290008812900088529000889290008A0
:100090008D29000891290008952900089929000850
:1000A0009D290008A1290008A5290008A929000800
:1000B000AD290008312800083B280008B1290008B4
:1000C000B5290008B9290008BD290008C129000880
:1000D000C5290008C9290008CD290008D129000830
:1000E000D5290008D9290008DD29000880B500F0CD
:1000F00019FC00F05DF900F05BFC00F0E9FC00F099
:10010000AFFD00F023FDDFF89C0700F048FEDFF8AC
:10011000980700F044FE01220821DFF8900701F063
:10012000EEF9DFF88C0701F0B9FA00221021DFF8B0
:100130007C0701F0E4F9DFF87C070078002811D093
:1001400001221021DFF8640701F0D9F90020DFF85F
:100150006417087000F0EFF900221021DFF84C0757
:1001600001F0CDF9DFF850070078002860D1DFF802
:100170004C070078002808D002281DD00DD3042891
:1001800038D028D3052844D0D5E701224FF4F851C0
:10019000DFF82C0701F0B3F9CDE700224FF48071AE
:1001A000DFF81C0701F0ABF901224FF4F051DFF842
:1001B000100701F0A4F9BEE700224FF40071DFF848
:1001C000000701F09CF901224FF4E851DFF8F00636
:1001D00001F095F9AFE700224FF48061DFF8E00607
:1001E00001F08DF901224FF4D851DFF8D40601F067
:1001F00086F9A0E700224FF40061DFF8C40601F0A1
:100200007EF901224FF4B851DFF8B40601F077F916
:1002100091E700224FF48051DFF8A40601F06FF956
:1002200001224FF47061DFF8980601F068F982E767
:1002300000F005F9DFF88C160860DFF88806006822
:10024000652801DB012000E00020DFF8781609684E
:10025000B1F5C87F01DA012100E00021C0B20842F7
:1002600012D00120DFF85416087000224FF480717C
:10027000DFF84C0601F043F901224FF4F051DFF8AA
:10028000400601F03CF956E7DFF838060068B0F5A3
:10029000FA7F01DD012000E00020DFF82816096860
:1002A000B1F5617F01DA012100E00021C0B208420E
:1002B00012D00220DFF80416087000224FF40071FB
:1002C000DFF8FC0501F01BF901224FF4E851DFF8DB
:1002D000F00501F014F92EE7DFF8E8050068B0F545
:1002E0007A7F01DD012000E00020DFF8D8150968E1
:1002F000B1F5AF6F01DA012100E00021C0B2084280
:1003000012D00320DFF8B415087000224FF480618A
:10031000DFF8AC0501F0F3F801224FF4D851DFF813
:10032000A00501F0ECF806E7DFF89805006840F258
:10033000DD51884201DB012000E00020DFF8841558
:10034000096840F26C72914201DA012100E000215B
:10035000C0B2084212D00420DFF8601508700022F5
:100360004FF40061DFF8580501F0C9F801224FF49D
:10037000B851DFF84C0501F0C2F8DCE6DFF84405BF
:100380000068B0F5FA6F7FF7D6AE0520DFF82C15C0
:10039000087000224FF48051DFF8240501F0AFF817
:1003A00001224FF47061DFF8180501F0A8F8C2E6E9
:1003B00000B593B009A8282101F004FC6846142177
:1003C00001F000FC05A8102101F0FCFB01200990C0
:1003D0005FF480300A9000200B9001200D900220E5
:1003E00010905FF4803011905FF4E010129009A833
:1003F00001F0ECFB002801D000F092FA0F200090F1
:1004000002200190002002904FF4806003900020B1
:1004100004900221684601F019FE002801D000F086
:100420007FFA022005904FF40040079005A801F0E4
:1004300045FF002801D000F073FA13B000BD10B5DD
:10044000DFF86C0401F02AF96421DFF8640401F09C
:10045000DAF9DFF85C0401F08EFA0400DFF85004EA
:1004600001F0B2F9200010BD10B50400227801217E
:10047000DFF84C0401F043F862780221DFF8400411
:1004800001F03DF8A2780421DFF8340401F037F8D8
:10049000E2780821DFF8280401F031F822791021F0
:1004A000DFF81C0401F02BF862792021DFF810043A
:1004B00001F025F8A2794021DFF8040401F01FF8CB
:1004C000E2798021DFF8F80301F019F810BD10B5CA
:1004D0000400DFF8F403FFF7C7FFDFF8DC03007860
:1004E000002823D1E4B2012C07D023D3032C0ED053
:1004F00008D3052C15D00FD31CE0DFF8D003FFF78D
:10050000B3FF17E0DFF8C803FFF7AEFF12E0DFF834
:10051000C403FFF7A9FF0DE0DFF8BC03FFF7A4FF5A
:1005200008E0DFF8B803FFF79FFF03E0DFF8B00350
:10053000FFF79AFF10BD80B5FF20DFF8A813086011
:100540000020DFF8A01348600120DFF898138860CE
:10055000DFF89013DFF8680300F06AFE0121DFF88E
:10056000600300F0C0FFDFF880130870DFF8780345
:100570000078DFF878130978884201D0012000E084
:100580000020DFF864130978002901D1012100E07F
:100590000021DFF828231278002A01D0012200E090
:1005A0000022C0B2C9B20840D2B2104229D0DFF84E
:1005B000F80200F02DFCDFF8F00200F0F0FBDFF8AD
:1005C0003003007800281CD00020DFF824130870C6
:1005D0000121DFF8EC0200F086FFDFF80C13087051
:1005E000DFF804030078002804D1B4480078401CE8
:1005F000B2490870B1480078062802DB0520AF49EF
:100600000870DFF8E4020078DFF8E01208700821D3
:10061000AB4800F068FFB7490870B6480078B649A3
:100620000978884201D0012000E00020B149097812
:10063000002901D1012100E00021A04A1278002AFE
:1006400001D0012200E00022C0B2C9B20840D2B2FB
:10065000104222D0944800F0DBFB934800F09FFB4F
:10066000A3480078002818D00020A149087008216C
:10067000934800F038FF9F4908709E480078002892
:1006800004D18E480078401E8C4908708B48007851
:10069000002802D1012089490870964800789649BF
:1006A00008700421864800F01EFF944908709348A2
:1006B000007893490978884201D0012000E00020A9
:1006C0008E490978002901D1012100E00021C0B242
:1006D00008422FD0744800F09BFB734800F05FFB8A
:1006E00083480078002825D0002081490870042123
:1006F000734800F0F8FE81490870824800780028AD
:100700000CD17E480078002814D1002208216748C7
:1007100000F0F5FE01207B4908700BE07748007877
:10072000002807D101220821604800F0E8FE0020DF
:100730007449087071480078714908701021604848
:1007400000F0D1FE704908706F4800786F49097851
:10075000884201D0012000E000206B49097800297F
:1007600001D1012100E00021C0B2084225D04E484D
:1007700000F04EFB4C4800F012FB5D48007800286A
:100780001BD000205A49087010214D4800F0ABFEE4
:100790005D49087049480078002807D15A48007818
:1007A00000280AD102204549087006E05648007822
:1007B000002802D10020414908705348007853496D
:1007C000087002213E4800F08EFE514908705048E2
:1007D000007850490978884201D0012000E00020CB
:1007E0004B490978002901D1012100E00021334A59
:1007F0001278002A01D0012200E00022C0B2C9B262
:100800000840D2B2104225D0274800F001FB26480C
:1008100000F0C5FA3648007800281BD00020344983
:1008200008700221264800F05EFE3949087022480F
:100830000078002807D13648007800280AD1012026
:100840001D49087006E032480078002802D10020D7
:10085000194908702E4800782E490870FF20214958
:10086000086011201F49486000201E49886003204D
:100870001C49C8601B49124800F0DAFC0F48007898
:10088000FFF725FE01BD0168234A914202D10121F3
:10089000084A11700168214A914202D10121144A8B
:1008A000117070475008002098080020000C01408B
:1008B000E0080020280900202C0900202B09002036
:1008C000000801402009002000000020080000204E
:1008D0001000002018000020200000202800002028
:1008E00030000020100900204000002041000020BE
:1008F000290900204200002043000020440000207D
:10090000450000202A090020460000204700002062
:10091000480000204900002000040040000800407A
:1009200072B6FEE780B51D48006850F010001B4904
:100930000860032001F04BFE0F2000F004F801F0E6
:100940007DFE002002BD10B504004FF47A701449FA
:100950000978B0FBF1F013490968B1FBF0F001F040
:1009600056FE002801D001200CE0102C09D20022F4
:1009700021005FF0FF3001F030FE0B4804600020E2
:1009800000E0012010BD09480068054909780818F1
:10099000064908607047054800687047002002401B
:1009A0004A0000203C0000203800002024090020DC
:1009B00000B585B001A8102101F004F94048006895
:1009C00050F010003E4908603D48006810F01000EB
:1009D000009000983A48006850F0200038490860BC
:1009E0003748006810F020000090009834480068F4
:1009F00050F00400324908603148006810F00400EB
:100A0000009000982E48006850F008002C490860BB
:100A10002B48006810F008000090009800224FF466
:100A20000051284800F06BFD002241F6FF71264876
:100A300000F065FD00221821244800F060FD4FF40D
:100A400000500190012002900020039003200490A8
:100A500001A91C4800F0ECFBFF200190112002903E
:100A6000002003900320049001A9174800F0E0FB48
:100A70004FF4F850019001200290002003900320D1
:100A8000049001A9104800F0D3FB08200190012038
:100A90000290002003900320049001A90B4800F06D
:100AA000C7FB102001900120029002200390032038
:100AB000049001A9054800F0BBFB05B000BD00BFD4
:100AC000181002400010014000080140000C0140D5
:100AD00000B587B002A8102101F074F85948D0E998
:100AE0000023CDE9002358485849086047F6FF40E5
:100AF000564948600020554988603C205349C860E9
:100B00000020524908610020504988614F4800F098
:100B10000FF9002801D0FFF703FF4FF48050029037
:100B200002A94A4800F08FFA002801D0FFF7F8FE2A
:100B300000200090002001906946444801F0A8FD83
:100B4000002801D0FFF7ECFE07B000BD00B587B06C
:100B500002A8102101F036F83D48D0E90023CDE984
:100B600000233C483C49086047F6FF403A4948604A
:100B700000203949886032203749C8600020364952
:100B80000861002034498861334800F0D1F800281A
:100B900001D0FFF7C5FE4FF48050029002A92E4805
:100BA00000F051FA002801D0FFF7BAFE08212A48C8
:100BB00000F052F9002801D0FFF7B2FE00200090AB
:100BC000002001906946244801F062FD002801D010
:100BD000FFF7A6FE07B000BD10B582B00400206884
:100BE0001949884214D11D48006850F002001B4981
:100BF00008601A48006810F0020000900098002277
:100C000000211D2001F0E9FC1D2001F0F9FC17E096
:100C100020681049884213D11048006850F0040041
:100C20000E4908600D48006810F00400009000981C
:100C3000002200211E2001F0D0FC1E2001F0E0FC6B
:100C400013BD00002C2900080004004050080020BB
:100C50003429000800080040980800201C100240B9
:100C6000E0B568460021002200230EC00C382C4855
:100C70002C49086000202B4988600020294908730E
:100C80000020284908755FF460202649C8610020CB
:100C900024494860012023490861224800F05AFC99
:100CA000002801D0FFF73CFE0820009001200190B1
:100CB0000020029069461B4800F060FE002801D029
:100CC000FFF72EFE07BD10B586B0040001A8102165
:100CD00000F078FF2068124988421FD1124800684E
:100CE00050F40070104908600F48006810F400705C
:100CF000009000980C48006850F008000A4908600D
:100D00000948006810F00800009000980120019048
:100D10000320029001A9054800F08AFA06B010BD30
:100D200000240140E008002018100240000C01409F
:100D300010B50400002C01D101202FE094F83D00F3
:100D4000002805D1002084F83C002000FFF744FF74
:100D5000022084F83D00211D206800F0EFF90120F9
:100D600084F84600012084F83E00012084F83F000A
:100D7000012084F84000012084F84100012084F81B
:100D80004200012084F84300012084F8440001203F
:100D900084F84500012084F83D00002010BD0100CA
:100DA00091F83D00012801D0012030E0022081F8B7
:100DB0003D000868C06850F001000B68D860086802
:100DC000DFF8883098420DD00868B0F1804F09D024
:100DD0000868DFF87C30984204D00868DFF8743087
:100DE00098420DD10868806810F007000200062ABA
:100DF0000CD00868006850F001000B68186005E02E
:100E00000868006850F001000B6818600020704707
:100E100001000868C068400840000A68D06008689F
:100E2000006A41F2111210420BD10868006A40F2C8
:100E30004442104205D108680068400840000A6832
:100E40001060012081F83D0000207047002C014017
:100E5000000400400008004038B504000D00002CDC
:100E600001D1012032E094F83D00002805D1002096
:100E700084F83C00200000F02AF8022084F83D00AD
:100E8000211D206800F05AF92068006830F0080041
:100E900021680860206800682843216808600120F4
:100EA00084F84600012084F83E00C0B2012084F896
:100EB0003F00C0B2012084F84200C0B2012084F893
:100EC0004300C0B2012084F83D00002032BD7047CD
:100ED00010B504002068006980071AD52068C06832
:100EE000800716D57FF00200216808610120207775
:100EF0002068806910F0030F03D0200000F01BF978
:100F000005E0200000F016F9200000F015F900209F
:100F100020772068006940071AD52068C06840071C
:100F200016D57FF004002168086102202077206830
:100F3000806910F4407F03D0200000F0FCF805E049
:100F4000200000F0F7F8200000F0F6F800202077ED
:100F50002068006900071AD52068C068000716D508
:100F60007FF0080021680861042020772068C069AC
:100F700010F0030F03D0200000F0DDF805E02000A2
:100F800000F0D8F8200000F0D7F800202077206883
:100F90000069C0061AD52068C068C00616D57FF063
:100FA000100021680861082020772068C06910F4CB
:100FB000407F03D0200000F0BEF805E0200000F0E4
:100FC000B9F8200000F0B8F8002020772068006908
:100FD000C0070AD52068C068C00706D57FF00100A9
:100FE000216808612000FFF74EFC206800690006B8
:100FF0000AD52068C068000606D57FF08000216809
:101000000861200001F085FB2068006940060AD5D0
:101010002068C068400606D57FF04000216808615E
:10102000200000F08AF82068006980060AD5206850
:10103000C068800606D57FF0200021680861200086
:1010400001F066FB10BD70B504000D0094F83C0083
:10105000012801D102206CE0012084F83C0002202C
:1010600084F83D0020688068060036F0770636F484
:101070007F4620688660286800284ED010284CD013
:1010800020284AD0302848D040283CD0502826D0AC
:1010900060282ED0702807D0B0F5805F03D0B0F55F
:1010A000005F0FD03EE03DE0EB686A68A968206809
:1010B00000F0B0F820688068060056F077062068D7
:1010C00086602FE0EB686A68A968206800F0A2F8E3
:1010D0002068806850F480402168886022E0EA68D7
:1010E0006968206800F064F85021206800F089F8F1
:1010F00018E0EA686968206800F06EF860212068EE
:1011000000F07FF80EE0EA686968206800F050F8A7
:101110004021206800F075F804E02968206800F09C
:1011200070F8FFE7012084F83D00002084F83C00BF
:10113000002070BD704770477047704703681A0001
:10114000184B984208D0B0F1804F05D0164B98420A
:1011500002D0164B984203D132F070024B681A430A
:10116000104B984208D0B0F1804F05D00E4B9842FA
:1011700002D00E4B984203D132F44072CB681A432E
:1011800032F080024B691A4302608B68C3620B68BD
:101190008362044B984201D10B69036301234361CD
:1011A00070470000002C014000040040000800408F
:1011B00030B4056A2C00056A6D086D00056285690A
:1011C0002B0033F0F00353EA021334F00A040C430B
:1011D0008361046230BC704730B4056A35F0100595
:1011E000056285692B00056A2C0033F4704353EACD
:1011F000023334F0A00454EA01148361046230BC69
:10120000704783681A0032F0700251F007031A43E6
:101210008260704730B485682C0034F47F4452EA11
:10122000010555EA03252C43846030BC7047010258
:101230002DE9F84100220026D1F800C03CFA02FC5A
:10124000BCF1000F00F04D815FF0010C1CFA02FCB4
:101250006346D1F800C013EA0C0C64469C4240F08F
:101260003E81D1F804C0BCF1000F3DD0BCF1010FAC
:1012700024D0BCF1020F2BD0BCF1030F4CD0BCF139
:10128000110F1FD0BCF1120F28D0DFF88882C4459F
:101290002AD0DFF88482C44526D0DFF88082C44596
:1012A00022D0DFF87C82C4451ED0DFF87882C445A6
:1012B0001AD0DFF87482C44516D031E0D1F80CC0E2
:1012C00066462DE0D1F80CC01CF1040C664627E000
:1012D000D1F80CC01CF1080C664621E0D1F80CC016
:1012E0001CF10C0C66461BE0D1F808C0BCF1000FE5
:1012F00003D15FF0040C66460DE0D1F808C0BCF1E4
:10130000010F04D15FF0080C6646036103E05FF053
:10131000080C6646436103E05FF0000C6646FFE799
:10132000FF2C01D8070000E0071DFF2C02D85FEA60
:10133000820E03E0B2F1080C5FEA8C0ED7F800C011
:101340005FF00F0818FA0EF83CEA080C16FA0EF8CF
:1013500058EA0C0CC7F800C0D1F804C05FEACC0C06
:1013600040F1BD80DFF8C4C1DCF800C05CF0010CC6
:10137000DFF8B881C8F800C0DFF8B0C1DCF800C001
:101380001CF00108CDF80080DDF800C0DFF8A0C136
:101390005FEA92085CF828C065465FF00F0C12F017
:1013A00003085FFA88F85FEA88081CFA08FC35EA47
:1013B0000C05DFF880C1604502D15FF0000C16E03B
:1013C000DFF874C1604502D15FF0010C0FE0DFF877
:1013D0006CC1604502D15FF0020C08E0DFF860C12B
:1013E000604502D15FF0030C01E05FF0040C12F0E5
:1013F00003085FFA88F85FEA88081CFA08FC5CEAD0
:101400000505DFF82CC15FEA92084CF82850D1F8A6
:1014100004C05FEACC3C0AD5DFF828C1DCF800C084
:1014200054EA0C0CDFF81C81C8F800C009E0DFF8B2
:1014300014C1DCF800C03CEA040CDFF80881C8F8ED
:1014400000C0D1F804C05FEA8C3C0AD5DFF8F8C0D0
:10145000DCF800C054EA0C0CDFF8EC80C8F800C0DF
:1014600009E0DFF8E4C0DCF800C03CEA040CDFF877
:10147000D880C8F800C0D1F804C05FEACC2C0AD5E7
:10148000DFF8C8C0DCF800C054EA0C0CDFF8BC8000
:10149000C8F800C009E0DFF8B4C0DCF800C03CEADE
:1014A000040CDFF8A880C8F800C0D1F804C05FEAD7
:1014B0008C2C0AD5DFF898C0DCF800C054EA0C0C7C
:1014C000DFF88C80C8F800C009E0DFF884C0DCF8E1
:1014D00000C03CEA040CDFF87880C8F800C0521C59
:1014E000AAE6BDE8F1810200936889B20B4202D0FE
:1014F0000123180001E000231800C0B27047D2B2E7
:10150000002A02D089B2016102E089B20B040361B2
:1015100070470000000011100000121000002110A0
:10152000000022100000311000003210181002409C
:101530000800014000080140000C0140001001407B
:10154000001401400004014004040140080401406B
:101550000C0401402DE9F04104000025002600277D
:101560005FF00008002C01D1012095E0A068002860
:1015700001D0207D0028A06A002807D10020E06269
:10158000002084F824002000FFF79DFB200000F0DD
:10159000EFFA0500A06AC00676D4EDB2002D73D133
:1015A000A06A30F4885050F00200A0626068E169DF
:1015B0000843217B50EA41000743A068B0F5807FD3
:1015C00002D0A068012802D14FF4807000E0002012
:1015D0000643207D012811D1207B002806D1A06977
:1015E000401E400350F40060064307E0A06A50F03C
:1015F0002000A062E06A50F00100E06220684068CC
:1016000030F4694030432168486020688068DFF822
:101610002C150840384321688860A068B0F5807FA9
:1016200002D0A068012802D14FF4807000E00020B1
:10163000B0F5807F03D12069401E000580462068F8
:10164000C06A30F4700058EA00002168C86220685F
:101650008068DFF8EC140840B84208D10020E0624E
:10166000A06A30F0020050F00100A06212E0A06A0F
:1016700030F0020050F01000A062E06A50F001006B
:10168000E0620120050005E0A06A50F01000A062B1
:10169000012005002800C0B2BDE8F08138B5040083
:1016A000002594F82400012801D102208BE00120BC
:1016B00084F82400200000F006FA0500EDB2002DA9
:1016C0007CD1A06ADFF87C14084050F48070A062DE
:1016D0002068DFF87414884209D1DFF870040068CC
:1016E00010F4702F01D1012002E0002000E0012061
:1016F00000280ED0A06A30F48010A06220684068F4
:10170000400523D5A06A30F4005050F48050A06208
:101710001CE0A06A50F48010A0622068DFF830144A
:10172000884204D02068DFF82014884205D1DFF811
:101730001C04006810F4806000E00020002805D040
:10174000A06A30F4005050F48050A062A06AC00437
:1017500004D5E06A30F00600E06201E00020E062BB
:10176000002084F824007FF00200216808602068CF
:10177000806810F46020B0F5602F18D12068DFF881
:10178000C813884209D1DFF8C403006810F4702F31
:1017900001D1012002E0002000E00120002806D055
:1017A0002068806850F4A0002168886009E0206803
:1017B000806850F480102168886002E0002084F87E
:1017C00024002800C0B232BD38B50400002594F8CA
:1017D0002400012801D1022014E0012084F8240013
:1017E000200000F0C5F90500EDB2002D05D1A06A7A
:1017F00030F4885050F00100A062002084F82400EA
:101800002800C0B232BDF8B504000D00002600204B
:1018100000900027FFF7BFF8060020688068C00529
:1018200008D5A06A50F02000A062002084F82400AF
:1018300001209FE020684068C0051FD42068C06A6E
:1018400010F4700F1AD120680068800774D415F165
:10185000010FF8D0002D04D0FFF79DF8801B8542C2
:10186000F1D2206800688007EDD4A06A50F004002F
:10187000A062002084F8240003207BE0022000F016
:10188000A3FD21680969DFF8CC22114215D1216836
:10189000C968DFF8C42211420FD121680969DFF855
:1018A000BC22114207D12168C968DFF8B422114275
:1018B00001D114211CE029211AE021680969DFF80F
:1018C0009C22114205D12168C968DFF89422114297
:1018D0000BD021680969DFF88C22114207D12168F9
:1018E000C968DFF88022114201D1542100E0FC21B7
:1018F000DFF874221268B2FBF0F001FB00F70098E9
:10190000B84219D215F1010F12D0002D04D0FFF703
:1019100042F8801B85420BD20098B84208D2A06AD8
:1019200050F00400A062002084F82400032021E08D
:101930000098401C0090E2E77FF0120021680860E8
:10194000A06A50F40070A0622068806810F46020E3
:10195000B0F5602F0DD1207B00280AD1A06A30F4A9
:101960008070A062A06AC00403D4A06A50F0010095
:10197000A0620020F2BD0068C06C704778B402001D
:1019800000230020009092F82400012801D10220B9
:1019900097E0012082F824004868072812D21068D6
:1019A000406B1F244D686D1E05267543AC40A04357
:1019B0000C684D686D1E05267543AC4020431468C5
:1019C000606327E048680D2812D21068006B1F245E
:1019D0004D68ED1F05267543AC40A0430C684D686B
:1019E000ED1F05267543AC4020431468206311E0C9
:1019F0001068C06A1F244D680D3D05267543AC4034
:101A0000A0430C684D680D3D05267543AC4020434E
:101A10001468E06208680A2812D31068C0680724B6
:101A20000D680A3D03267543AC40A0438C680D68E1
:101A30000A3D03267543AC4020431468E0600FE084
:101A40001068006907240D6803267543AC40A04365
:101A50008C680D6803267543AC40204314682061F0
:101A60000868102802D00868112825D11068384C61
:101A7000A0421BD11068806800021DD410688068E5
:101A800050F400001468A0600868102814D136488B
:101A90000068364CB0FBF4F00A24604300900098D4
:101AA000002809D00098401E0090F8E7906A50F096
:101AB0002000906201200300002082F8240018001A
:101AC000C0B272BC704738B50400002500200090F9
:101AD00020688068C0072FD42068806850F001001B
:101AE00021688860204800682049B0FBF1F0009030
:101AF0000098002803D00098401E0090F8E7FEF7F9
:101B00004AFF050020688068C00715D4FEF743FF30
:101B1000401B0328F6D320688068C007F2D4A06A6F
:101B200050F01000A062E06A50F00100E062002076
:101B300084F82400012000E0002032BDFDF7E1FF21
:101B4000FE0E1FFFFEFDFFFF0028014004240140A0
:101B500000240140244992242449920092244912ED
:101B600092244900499224003C00002040420F008A
:101B700038B50400002520688068C0071FD520689C
:101B800080684008400021688860FEF704FF050077
:101B900020688068C00712D5FEF7FDFE401B0328B1
:101BA000F6D320688068C007F2D5A06A50F0100014
:101BB000A062E06A50F00100E062012000E0002035
:101BC00032BD0000002200F0A5BD0102F8B50400FE
:101BD000002C01D1012038E22078C00740F1848038
:101BE000DFF89406006810F00C0004280BD0DFF832
:101BF0008806006810F00C0008280ED1DFF878067F
:101C00000068C00309D5DFF86C06006880036BD557
:101C10006068002868D1012017E26068B0F5803F55
:101C200008D1DFF85006006850F48030DFF8441621
:101C3000086038E06068002810D1DFF838060068D6
:101C400030F48030DFF82C160860DFF828060068D2
:101C500030F48020DFF81C16086024E06068B0F5DE
:101C6000A02F10D1DFF80C06006850F48020DFF8B8
:101C700004160860DFF8FC05006850F48030DFF8D7
:101C8000F41508600FE0DFF8EC05006830F48030F0
:101C9000DFF8E0150860DFF8DC05006830F480202C
:101CA000DFF8D0150860606800280ED0FEF773FEDC
:101CB0000500DFF8C0050068800315D4FEF76BFE51
:101CC000401B6528F5D30320BFE1FEF764FE050045
:101CD000DFF8A0050068800306D5FEF75CFE401B18
:101CE0006528F5D30320B0E1207880075CD5DFF8C4
:101CF0008805006810F00C0F0BD0DFF87C05006839
:101D000010F00C0008281AD1DFF86C050068C00339
:101D100015D4DFF860050068800704D52069012824
:101D200001D0012091E1DFF84C05006830F0F800A7
:101D3000616950EAC100DFF83C15086034E02069B1
:101D400000281ED00120DFF844150860FEF723FEAE
:101D50000500DFF820050068800706D4FEF71BFEAB
:101D6000401B0328F5D303206FE1DFF80805006866
:101D700030F0F800616950EAC100DFF8F81408603B
:101D800012E00020DFF804150860FEF704FE0500ED
:101D9000DFF8E0040068800706D5FEF7FCFD401B75
:101DA0000328F5D3032050E1207800072CD5A06943
:101DB000002816D00120DFF8D8140860FEF7EBFDEC
:101DC0000500DFF8C4040068800706D4FEF7E3FDD1
:101DD000401B0328F5D3032037E1012000F037FA38
:101DE00012E00020DFF8A8140860FEF7D4FD05001B
:101DF000DFF894040068800706D5FEF7CCFD401B91
:101E00000328F5D3032020E12078400740F1A78084
:101E10000027DFF880040068C00010D4DFF87404E5
:101E2000006850F08050DFF86C140860DFF864043C
:101E3000006810F080500090009801200700DFF843
:101E400058040068C00516D4DFF84C04006850F44C
:101E50008070DFF844140860FEF79DFD0500DFF890
:101E600038040068C00506D4FEF795FD401B6528C0
:101E7000F5D30320E9E0E068012808D1DFF81C046D
:101E8000006850F00100DFF81414086037E0E068E3
:101E9000002810D1DFF80404006840084000DFF893
:101EA000FC130860DFF8F403006830F00400DFF88A
:101EB000EC13086023E0E068052810D1DFF8DC03AC
:101EC000006850F00400DFF8D4130860DFF8CC039A
:101ED000006850F00100DFF8C41308600FE0DFF87D
:101EE000BC03006840084000DFF8B0130860DFF86A
:101EF000AC03006830F00400DFF8A0130860E0686D
:101F0000002810D0FEF747FD0500DFF890030068B9
:101F1000800719D4FEF73FFD401B41F2893188420A
:101F2000F3D3032091E0FEF736FD0500DFF86C03E4
:101F30000068800708D5FEF72EFD401B41F289316D
:101F40008842F3D3032080E0FFB2012F07D1DFF8EE
:101F50004403006830F08050DFF838130860E0690F
:101F6000002871D0DFF81003006810F00C0008287A
:101F700055D0E06902283FD10020DFF82413086023
:101F8000FEF709FD0500DFF8EC020068800106D5C8
:101F9000FEF701FD401B0328F5D3032055E0206A1E
:101FA000B0F5803F09D1DFF8D002006830F400308E
:101FB000A1680843DFF8C0120860DFF8BC020068BF
:101FC00030F47410216A0843616A0843DFF8A812EC
:101FD00008600120DFF8C8120860FEF7DCFC05008D
:101FE000DFF89002006880012ED4FEF7D4FC401B7D
:101FF0000328F5D3032028E00020DFF8A4120860AE
:10200000FEF7C9FC0500DFF86C02006880011BD5F3
:10201000FEF7C1FC401B0328F5D3032015E0E0695F
:10202000012801D1012010E0DFF84C020068060011
:1020300016F48030216A884204D116F47010616A67
:10204000884201D0012000E00020F2BD70B50400FC
:102050000D00002C01D10120AEE0DFF8480200683D
:1020600010F00700A84211D2DFF838020068C0085B
:10207000C0002843DFF82C120860DFF8280200684F
:1020800010F00700A84201D0012095E020788007D9
:102090001FD52078400707D5DFF8DC01006850F431
:1020A000E060DFF8D41108602078000707D5DFF87A
:1020B000C801006850F46050DFF8BC110860DFF818
:1020C000B801006830F0F000A1680843DFF8A811FB
:1020D00008602078C00733D56068012805D16548BD
:1020E0000068800310D4012066E06068022805D1F2
:1020F00060480068800107D401205DE05D48006809
:10210000800701D4012057E05B4800688008800008
:102110006168084358490860FEF73DFC06005648D0
:10212000006810F00C006168B0EB810F08D0FEF77A
:1021300032FC801B41F289318842F0D303203BE01E
:102140005848006810F0070085420ED255480068D4
:10215000C008C0002843534908605248006810F086
:102160000700A84201D0012026E02078400707D5CB
:102170004148006830F4E060E16808433E49086087
:102180002078000708D53C48006830F46050216989
:1021900050EAC1003849086000F00FF84249364A59
:1021A0001268C2F30312515CC840354908603548D3
:1021B0000068FEF7C8FB002070BD70B586B001A8AE
:1021C0003A49102200F0C0FA39480088ADF8000002
:1021D00000210022002300240020274D2D68290023
:1021E00011F00C05042D02D0082D03D01DE0234D65
:1021F00028001CE001ADC1F38346755D2C00CD03C2
:102200000DD56D461C4E3668C6F34046755D2A00F6
:102210001A4D05FB04F5B5FBF2F52B0003E0254D47
:1022200005FB04F52B00180001E0144D280006B052
:1022300070BD13480068704780B5FFF7FAFF1E496C
:102240000D4A1268C2F3C222515CC84002BD81B07F
:102250000B490968C9084FF47A72B1FBF2F101FB2E
:1022600000F1009100BF00994A1E00920029F9D1A7
:1022700001B07047001002400410024000127A00C2
:102280003C000020380000202410024000004242A0
:10229000800442421C1002400070004020100240A6
:1022A0006000424200200240F8280008D8280008B8
:1022B0002E12000800093D0024290008F8B504008A
:1022C000002500262078C00766D500277F480068D3
:1022D000C0000DD47D48006850F080507B490860F4
:1022E0007A48006810F080500090009801200700A4
:1022F00077480068C00513D47548006850F48070B2
:1023000073490860FEF747FB050071480068C00587
:1023100006D4FEF740FB401B6528F6D3032052E0AD
:102320006C48006810F440700600002E23D06068EE
:1023300010F4407086421ED06648006830F4407049
:102340000600012064490860002063490860614874
:102350000660F0070FD5FEF71EFB05005D4800681C
:10236000800708D4FEF717FB401B41F289318842F1
:10237000F4D3032027E05748006830F440706168C8
:10238000084354490860FFB2012F05D14F48006847
:1023900030F080504D4908602078800707D54F48BD
:1023A000006830F44040A16808434C490860207838
:1023B000C00607D54948006830F48000E16808434A
:1023C000464908600020F2BD2DE9F04385B00400C5
:1023D00001A84349102200F0B7F942480088ADF83F
:1023E00000000025002600275FF000085FF00009CC
:1023F0002000012832D0022858D0102862D1374856
:102400000068804638480068C00126D501A8C8F396
:102410008341085C07005FEAC8300FD568462F4942
:102420000968C1F34041085C05005FEAC83009D57E
:102430002E48B0FBF5F07843060003E02C4800FB83
:1024400007F0060025480068400201D5B14604E0C7
:1024500070000321B0FBF1F0814633E01D480068B5
:10246000804640F2023010EA0800B0F5817F03D1C7
:102470004FF40040814618E018F44070B0F5007F3A
:1024800007D11C480068800703D549F640408146C3
:102490000BE018F44070B0F5407F06D11248006898
:1024A000800302D54FF2244081460BE0FFF7C4FEC3
:1024B0000A490968C1F38131491C4900B0FBF1F0B8
:1024C0008146FFE7484605B0BDE8F0831C10024096
:1024D00000700040201002404004424204100240BC
:1024E000E8280008CA1B00080010024000127A0009
:1024F00000093D002410024010F00702474B1B6802
:1025000019004FF6FF031940454B53EA02231943C4
:10251000424B1960704741480068C0F30220704781
:1025200040B2002808D4012110F01F0291403D4A1A
:1025300040B2430942F82310704710B440B200285B
:1025400004D40A01384B40B2C25407E00A01374BA9
:1025500040B210F00F04E31803F8042C10BC7047CD
:1025600070B4030013F00704D4F10706052E01D35D
:10257000042001E0D4F10700261D072E01D200251A
:1025800000E0E51E012616FA00F0401E0840A840B3
:102590000121A940491E1140084370BC704710B585
:1025A0000400601EB0F1807F01D301200EE0601EA8
:1025B0001F4908600F215FF0FF30FFF7BEFF0020CA
:1025C0001C49086007201C490860002010BD10B598
:1025D00004002000FFF790FF10BDF8B504000D00C7
:1025E00016000027FFF797FF070032002900380088
:1025F000FFF7B6FF0100200040B2FFF79EFFF1BDDC
:1026000010B50400200040B2FFF78AFF10BD10B5DE
:1026100004002000FFF7C3FF10BD00000CED00E038
:102620000000FA0500E100E000E400E018ED00E041
:1026300014E000E018E000E010E000E081B0114894
:10264000006850F001000F4908600E48006810F063
:102650000100009000980C48006850F080500A4932
:1026600008600948006810F0805000900098074901
:102670000968080030F0E06050F00070034908601D
:1026800001B07047181002401C10024004000140C5
:1026900030B4020092F83C00012801D102202EE063
:1026A000012082F83C00022082F83D00106840685A
:1026B000040010688068030034F070040868044364
:1026C0001068446010680F4DA8420BD01068B0F13C
:1026D000804F07D010680C4DA84203D010680B4DF6
:1026E000A84205D133F08003486803431068836033
:1026F000012082F83D00002082F83C00002030BC20
:1027000070470000002C0140000400400008004019
:102710007047704700B500BF1300964694461039C5
:1027200028BFA0E80C50FAD85FEA417C28BF0CC053
:1027300048BF40F8042BC90728BF20F8022B48BF28
:1027400000F8012B00BD0000103A07D330B4B1E807
:102750003810103AA0E83810F9D230BC530724BF23
:10276000B1E80810A0E8081044BF51F8043B40F855
:10277000043BD20724BF31F8022B20F8022B44BFC0
:102780000B7803707047083A07D3B1E80810083A8D
:1027900040F8043B40F804CBF7D25307E4E719E0D4
:1027A00050F8041BCB0744BFA9F101035918121FAD
:1027B0000023042A41F8043BF9D25FEA827C0B46ED
:1027C00004D54FF0000CA1F800C09B1CD10744BFFA
:1027D0000021197050F8042B002AE1D1704730B560
:1027E000016842688468091801EB5203D20748BFA8
:1027F0004C440C30994200D130BD11F9012B11F835
:10280000015B002A04F8015B02D5521CF9D1F1E703
:10281000521EF4D5EEE70000FEE7FEE7FEE7FEE716
:10282000FEE770477047704780B5FEF7ACF801BD12
:1028300080B50448FEF74CFB01BD80B50248FEF7A9
:1028400047FB01BD500800209808002010B507493B
:1028500079441831064C7C44163404E00A68081D9B
:10286000511888470146A142F8D110BD0800000068
:10287000240000002BFFFFFFE000000050080020B4
:10288000000000005BFFFFFF5A0100006E00000027
:102890000000002000F00BF8002801D0FFF7D6FF61
:1028A0000020C046C046FDF721FC00F002F80120E0
:1028B000704700F001B800000746384600F002F803
:1028C000FBE7000080B5C046C046024A1100182050
:1028D000ABBEFBE726000200020304050607080959
:1028E0000A0B0C0D0E0F1010020304050607080951
:1028F0000A0B0C0D0E0F101000000000000000006D
:1029000001020304060708090148804701480047FF
:10291000E129000819290008C046C046C046C04643
:10292000FFF7B8FF000000000102030400000000F0
:10293000000000000000000000000000FFF7FEBFE4
:10294000FFF7FEBFFFF7FEBFFFF7FEBFFFF7FEBFBB
:10295000FFF7FEBFFFF7FEBFFFF7FEBFFFF7FEBFAB
:10296000FFF7FEBFFFF7FEBFFFF7FEBFFFF7FEBF9B
:10297000FFF7FEBFFFF7FEBFFFF7FEBFFFF7FEBF8B
:10298000FFF7FEBFFFF7FEBFFFF7FEBFFFF7FEBF7B
:10299000FFF7FEBFFFF7FEBFFFF7FEBFFFF7FEBF6B
:1029A000FFF7FEBFFFF7FEBFFFF7FEBFFFF7FEBF5B
:1029B000FFF7FEBFFFF7FEBFFFF7FEBFFFF7FEBF4B
:1029C000FFF7FEBFFFF7FEBFFFF7FEBFFFF7FEBF3B
:1029D000FFF7FEBFFFF7FEBFFFF7FEBFFFF7FEBF2B
:1029E0007047F701FE00FB01070000010000010035
:1029F00001FC0013010100010100000101000001C0
:102A00000001000001000001FD000001FD000101C6
:092A100010FC000224F400F501A1
:0400000508002919AD
:00000001FF
