:020000040800F2
:1000000058080020B52A00083D2900083F290008AB
:100010004129000843290008452900080000000084
:100020000000000000000000000000004729000858
:1000300049290008000000004B2900084D2900084C
:10004000F12A0008F52A0008F92A0008FD2A00080C
:10005000012B0008052B0008092B00080D2B0008B8
:10006000112B0008152B0008192B00081D2B000868
:10007000212B0008252B0008292B00082D2B000818
:10008000312B0008352B0008392B00083D2B0008C8
:10009000412B0008452B0008492B00084D2B000878
:1000A000512B0008552B0008592B00085D2B000828
:1000B000552900085F29000869290008612B0008FC
:1000C000652B0008692B00086D2B0008712B0008B8
:1000D000752B0008792B00087D2B0008812B000868
:1000E000852B0008892B00088D2B000880B500F0B7
:1000F00075FC00F06BF900F0B7FC00F08DFD00F02E
:100100006FFE00F0C7FD00F03FFDDFF83C0800F097
:1001100006FFDFF8380800F002FF01220821DFF8AF
:10012000300801F0ACFADFF82C0801F085FB002262
:100130001021DFF81C0801F0A2FADFF81C08007893
:10014000002811D001221021DFF8040801F097FAED
:100150000020DFF80418087000F005FA00221021D2
:10016000DFF8EC0701F08BFADFF8F0070078512890
:1001700008DB0020DFF8E417087000F06EF9DFF804
:10018000E0170860DFF8DC070078002860D1DFF8AE
:10019000D8070078002808D002281DD00DD30428E5
:1001A00038D028D3052844D0C7E701224FF4F851AE
:1001B000DFF8B80701F063FABFE700224FF480715F
:1001C000DFF8A80701F05BFA01224FF4F051DFF8E5
:1001D0009C0701F054FAB0E700224FF40071DFF8F9
:1001E0008C0701F04CFA01224FF4E851DFF87C074C
:1001F00001F045FAA1E700224FF48061DFF86C07B7
:1002000001F03DFA01224FF4D851DFF8600701F008
:1002100036FA92E700224FF40061DFF8500701F050
:100220002EFA01224FF4B851DFF8400701F027FA07
:1002300083E700224FF48051DFF8300701F01FFA06
:1002400001224FF47061DFF8240701F018FA74E717
:10025000DFF80C070068652801DB012000E00020C2
:10026000DFF8FC160968B1F5C87F01DA012100E06A
:100270000021C0B2084212D00120DFF8EC1608704D
:1002800000224FF48071DFF8E40601F0F8F9012252
:100290004FF4F051DFF8D40601F0F1F94DE7DFF843
:1002A000C0060068B0F5FA7F01DD012000E0002003
:1002B000DFF8AC16096840F66602914201DA0121C6
:1002C00000E00021C0B2084212D00220DFF89816E8
:1002D000087000224FF40071DFF8900601F0CFF9AA
:1002E00001224FF4E851DFF8840601F0C8F924E751
:1002F000DFF86C06006840F69901884201DB0120B6
:1003000000E00020DFF85816096840F62E129142EE
:1003100001DA012100E00021C0B2084212D003201E
:10032000DFF84416087000224FF48061DFF83C06C5
:1003300001F0A5F901224FF4D851DFF8300601F0A1
:100340009EF9FAE6DFF818060068B0F5166F01DDD1
:10035000012000E00020DFF80816096840F6F612D8
:10036000914201DA012100E00021C0B2084212D01E
:100370000420DFF8F415087000224FF40061DFF864
:10038000EC0501F07CF901224FF4B851DFF8DC05EF
:1003900001F075F9D1E6DFF8C805006840F62921BB
:1003A0008842FFF6CAAE0520DFF8BC1508700022AF
:1003B0004FF48051DFF8B40501F061F901224FF4E8
:1003C0007061DFF8A80501F05AF9B6E600B593B000
:1003D00009A8282101F0C4FC6846142101F0C0FCE2
:1003E00005A8102101F0BCFC012009905FF48030C9
:1003F0000A9000200B9001200D90022010905FF4D5
:10040000803011905FF4E010129009A801F0ACFC6C
:10041000002801D000F0E0FA0F20009002200190A7
:10042000002002904FF4806003900020049002218D
:10043000684601F0D9FE002801D000F0CDFA022074
:1004400005904FF40040079005A802F005F8002839
:1004500001D000F0C1FA13B000BD10B5DFF8F4040C
:1004600001F0EAF96421DFF8EC0401F09AFADFF810
:10047000E40401F04EFB0400DFF8D80401F072FA46
:10048000200010BD10B5040022780121DFF8DC0443
:1004900001F0F5F862780221DFF8D00401F0EFF8FE
:1004A000A2780421DFF8C40401F0E9F8E278082119
:1004B000DFF8B80401F0E3F822791021DFF8AC048A
:1004C00001F0DDF862792021DFF8A00401F0D7F80F
:1004D000A2794021DFF8940401F0D1F8E27980217B
:1004E000DFF8880401F0CBF810BD10B50400DFF888
:1004F0008004FFF7C7FFDFF87C04007800282DD1C7
:10050000DFF860040078002823D1E4B2012C07D082
:1005100028D3032C0ED008D3052C15D00FD321E0FF
:10052000DFF85404FFF7AEFF1CE0DFF85004FFF7DC
:10053000A9FF17E0DFF84804FFF7A4FF12E0DFF897
:100540004404FFF79FFF0DE0DFF83C04FFF79AFF3C
:1005500008E0DFF83804FFF795FF03E0DFF8300428
:10056000FFF790FF10BD80B5FF20DFF8281408606A
:100570000020DFF8201448600120DFF8181488609C
:10058000DFF81014DFF8E40300F012FFDFF8CC030B
:100590000078401CDFF8C41308700121DFF8CC0399
:1005A00001F061F8DFF8F0130870DFF8EC03007871
:1005B000DFF8E8130978884201D0012000E000202C
:1005C000DFF8D4130978002901D1012100E00021CE
:1005D000DFF894231278002A01D0012200E00022E3
:1005E000C0B2C9B20840D2B210422DD0DFF85C03CD
:1005F00000F0CEFCDFF8540300F091FCDFF8A0031C
:100600000078002820D00020DFF894130870012122
:10061000DFF8580301F027F8DFF87C130870DFF8E3
:1006200078030078002806D1DFF83C030078401CEE
:10063000DFF834130870DFF830030078062803DB96
:100640000520DFF824130870DFF84C030078DFF88A
:100650004C1308700821DFF8140301F004F8DFF8E8
:1006600044130870DFF83C030078DFF83C13097886
:10067000884201D0012000E00020DFF8281309782B
:10068000002901D1012100E00021B74A1278002A97
:1006900001D0012200E00022C0B2C9B20840D2B2AB
:1006A000104223D0A94800F073FCA84800F037FCA2
:1006B000DFF8EC020078002818D00020B849087054
:1006C0000821AA4800F0CFFFB6490870B548007865
:1006D000002804D1A4480078401EA3490870A2480D
:1006E0000078002802D101209F490870AD480078A9
:1006F000AD49087004219D4800F0B5FFAB49087072
:10070000AA480078AA490978884201D0012000E06F
:100710000020A6490978002901D1012100E000212B
:10072000C0B208422FD0894800F032FC874800F060
:10073000F6FB9B480078002825D0002098490870D7
:1007400004218A4800F08FFF984908709948007882
:1007500000280CD195480078002814D100220821E7
:100760007B4800F08CFF0120924908700BE08F4815
:100770000078002807D101220821754800F07FFF8A
:1007800000208C4908708948007889490870102138
:10079000764800F068FF88490870874800788749E4
:1007A0000978884201D0012000E0002082490978C0
:1007B000002901D1012100E00021C0B2084239D056
:1007C000624800F0E5FB614800F0A9FB744800783E
:1007D00000282FD00020724908701021634800F0D3
:1007E00042FF754908706348007800280DD07248B0
:1007F0000078002809D100205E490870002059497E
:10080000087000205849087014E057480078002804
:1008100007D16948007800280CD10220524908709D
:1008200008E0674800F0B4FB654800F078FB012061
:1008300050490870604800786049087002214B48B0
:1008400000F011FF5F4908705E4800785E49097842
:10085000884201D0012000E000205A49097800298F
:1008600001D1012100E000213F4A1278002A01D085
:10087000012200E00022C0B2C9B20840D2B2104248
:1008800025D0324800F084FB304800F048FB444853
:10089000007800281BD0002041490870022133480D
:1008A00000F0E1FE474908702E480078002807D183
:1008B0004448007800280AD101202A49087006E03F
:1008C00040480078002802D10020264908703D48A1
:1008D00000783D490870FF202E49086011202D49FD
:1008E000486000202B49886003202A49C8602949B4
:1008F0001E4800F05DFD1C480078FFF7F6FD01BDC5
:1009000010B5040020683149884207D101201249FE
:1009100008704FF400512E4800F0BBFE20682D49AE
:10092000884202D101201E4908702068B0F1804F32
:1009300008D100200F49087000200A4908700020E3
:100940000949087010BD0000A0080020E808002038
:10095000000C014030090020780900207E090020A9
:10096000700900207D0900207C090020000801405A
:10097000000000207A09002008000020100000205C
:100980001800002020000020280000203000002057
:1009900038000020600900204800002049000020A5
:1009A000790900204A0000204B0000204C00002064
:1009B0004D0000207B0900204E0000204F00002049
:1009C0005808002050000020510000200004004082
:1009D000001001400008004072B6FEE780B51D48D7
:1009E000006850F010001B490860032001F0BDFEB4
:1009F0000F2000F004F801F0EFFE002002BD10B55A
:100A000004004FF47A7014490978B0FBF1F01349EF
:100A10000968B1FBF0F001F0C8FE002801D0012008
:100A20000CE0102C09D2002221005FF0FF3001F011
:100A3000A2FE0B480460002000E0012010BD094820
:100A40000068054909780818064908607047054894
:100A5000006870470020024052000020440000203F
:100A6000400000207409002000B585B001A81021C5
:100A700001F076F94048006850F010003E490860E7
:100A80003D48006810F01000009000983A48006857
:100A900050F02000384908603748006810F0200006
:100AA000009000983448006850F004003249086013
:100AB0003148006810F00400009000982E4800684B
:100AC00050F008002C4908602B48006810F008001E
:100AD0000090009800224FF40051284800F0CFFD0C
:100AE000002241F6FF71264800F0C9FD00221821BE
:100AF000244800F0C4FD4FF4005001900120029002
:100B0000002003900320049001A91C4800F050FC31
:100B1000FF200190112002900020039003200490F8
:100B200001A9174800F044FC4FF4F850019001204F
:100B30000290002003900320049001A9104800F0C7
:100B400037FC082001900120029000200390032030
:100B5000049001A90B4800F02BFC1020019001200B
:100B60000290022003900320049001A9054800F0A0
:100B70001FFC05B000BD00BF18100240001001406E
:100B800000080140000C014000B587B002A8102108
:100B900001F0E6F88948D0E90023CDE900235FF0B1
:100BA00080408749086047F6FF408549486000203B
:100BB0008349886049F640408149C86000208049E7
:100BC000086100207E4988617D4800F071F90028A5
:100BD00001D0FFF701FF4FF48050029002A978483E
:100BE00000F0F1FA002801D0FFF7F6FE0821744862
:100BF00000F0F2F9002801D0FFF7EEFE002000908F
:100C00000020019069466E4801F010FE002801D0D6
:100C1000FFF7E2FE07B000BD00B587B002A81021C3
:100C200001F09EF86748D0E90023CDE9002366482B
:100C30006649086047F6FF40644948600020634900
:100C40008860FA206149C86000206049086100207E
:100C50005E4988615D4800F02BF9002801D0FFF75C
:100C6000BBFE4FF48050029002A9584800F0ABFA46
:100C7000002801D0FFF7B0FE002000900020019076
:100C80006946524801F0D2FD002801D0FFF7A4FECA
:100C900007B000BD00B587B002A8102101F060F8D0
:100CA0004B48D0E90023CDE900234A484A4908606F
:100CB00047F6FF4048494860002047498860C820FF
:100CC0004549C860002044490861002042498861C4
:100CD000414800F0EDF8002801D0FFF77DFE4FF409
:100CE0008050029002A93C4800F06DFA002801D023
:100CF000FFF772FE0821384800F06EF9002801D095
:100D0000FFF76AFE002000900020019069463248FB
:100D100001F08CFD002801D0FFF75EFE07B000BD9A
:100D200010B582B004002068B0F1804F14D12B4878
:100D3000006850F00100294908602848006810F058
:100D4000010000900098002200211C2001F013FDFA
:100D50001C2001F023FD30E020681B49884214D19B
:100D60001E48006850F002001C4908601B480068DB
:100D700010F0020000900098002200211D2001F0D8
:100D8000FAFC1D2001F00AFD17E020681149884295
:100D900013D11248006850F00400104908600F4851
:100DA000006810F0040000900098002200211E202E
:100DB00001F0E1FC1E2001F0F1FC13BDD82A00086F
:100DC00058080020E02A000800040040A008002085
:100DD000E82A000800080040E80800201C10024033
:100DE000E0B568460021002200230EC00C382C48D4
:100DF0002C49086000202B4988600020294908738D
:100E00000020284908755FF460202649C861002049
:100E100024494860012023490861224800F068FC09
:100E2000002801D0FFF7D8FD082000900120019094
:100E30000020029069461B4800F06EFE002801D099
:100E4000FFF7CAFD07BD10B586B0040001A8102148
:100E500000F086FF2068124988421FD112480068BE
:100E600050F40070104908600F48006810F40070DA
:100E7000009000980C48006850F008000A4908608B
:100E80000948006810F008000090009801200190C7
:100E90000320029001A9054800F08AFA06B010BDAF
:100EA000002401403009002018100240000C0140CD
:100EB00010B50400002C01D101202FE094F83D0072
:100EC000002805D1002084F83C002000FFF728FF0F
:100ED000022084F83D00211D206800F0EFF9012078
:100EE00084F84600012084F83E00012084F83F0089
:100EF000012084F84000012084F84100012084F89A
:100F00004200012084F84300012084F844000120BD
:100F100084F84500012084F83D00002010BD010048
:100F200091F83D00012801D0012030E0022081F835
:100F30003D000868C06850F001000B68D860086880
:100F4000DFF8883098420DD00868B0F1804F09D0A2
:100F50000868DFF87C30984204D00868DFF8743005
:100F600098420DD10868806810F007000200062A38
:100F70000CD00868006850F001000B68186005E0AC
:100F80000868006850F001000B6818600020704786
:100F900001000868C068400840000A68D06008681E
:100FA000006A41F2111210420BD10868006A40F247
:100FB0004442104205D108680068400840000A68B1
:100FC0001060012081F83D0000207047002C014096
:100FD000000400400008004038B504000D00002C5B
:100FE00001D1012032E094F83D00002805D1002015
:100FF00084F83C00200000F02AF8022084F83D002C
:10100000211D206800F05AF92068006830F00800BF
:101010002168086020680068284321680860012072
:1010200084F84600012084F83E00C0B2012084F814
:101030003F00C0B2012084F84200C0B2012084F811
:101040004300C0B2012084F83D00002032BD70474B
:1010500010B504002068006980071AD52068C068B0
:10106000800716D57FF002002168086101202077F3
:101070002068806910F0030F03D0200000F01BF9F6
:1010800005E0200000F016F9200000F015F900201E
:1010900020772068006940071AD52068C06840079B
:1010A00016D57FF0040021680861022020772068AF
:1010B000806910F4407F03D0200000F0FCF805E0C8
:1010C000200000F0F7F8200000F0F6F8002020776C
:1010D0002068006900071AD52068C068000716D587
:1010E0007FF0080021680861042020772068C0692B
:1010F00010F0030F03D0200000F0DDF805E0200021
:1011000000F0D8F8200000F0D7F800202077206801
:101110000069C0061AD52068C068C00616D57FF0E1
:10112000100021680861082020772068C06910F449
:10113000407F03D0200000F0BEF805E0200000F062
:10114000B9F8200000F0B8F8002020772068006986
:10115000C0070AD52068C068C00706D57FF0010027
:10116000216808612000FFF7CBFB206800690006BA
:101170000AD52068C068000606D57FF08000216887
:101180000861200001F093FB2068006940060AD541
:101190002068C068400606D57FF0400021680861DD
:1011A000200000F08AF82068006980060AD52068CF
:1011B000C068800606D57FF0200021680861200005
:1011C00001F074FB10BD70B504000D0094F83C00F4
:1011D000012801D102206CE0012084F83C000220AB
:1011E00084F83D0020688068060036F0770636F403
:1011F0007F4620688660286800284ED010284CD092
:1012000020284AD0302848D040283CD0502826D02A
:1012100060282ED0702807D0B0F5805F03D0B0F5DD
:10122000005F0FD03EE03DE0EB686A68A968206887
:1012300000F0B0F820688068060056F07706206855
:1012400086602FE0EB686A68A968206800F0A2F861
:101250002068806850F480402168886022E0EA6855
:101260006968206800F064F85021206800F089F86F
:1012700018E0EA686968206800F06EF8602120686C
:1012800000F07FF80EE0EA686968206800F050F826
:101290004021206800F075F804E02968206800F01B
:1012A00070F8FFE7012084F83D00002084F83C003E
:1012B000002070BD704770477047704703681A0080
:1012C000184B984208D0B0F1804F05D0164B984289
:1012D00002D0164B984203D132F070024B681A4389
:1012E000104B984208D0B0F1804F05D00E4B984279
:1012F00002D00E4B984203D132F44072CB681A43AD
:1013000032F080024B691A4302608B68C3620B683B
:101310008362044B984201D10B690363012343614B
:1013200070470000002C014000040040000800400D
:1013300030B4056A2C00056A6D086D000562856988
:101340002B0033F0F00353EA021334F00A040C4389
:101350008361046230BC704730B4056A35F0100513
:10136000056285692B00056A2C0033F4704353EA4B
:10137000023334F0A00454EA01148361046230BCE7
:10138000704783681A0032F0700251F007031A4365
:101390008260704730B485682C0034F47F4452EA90
:1013A000010555EA03252C43846030BC70470102D7
:1013B0002DE9F84100220026D1F800C03CFA02FCD9
:1013C000BCF1000F00F04D815FF0010C1CFA02FC33
:1013D0006346D1F800C013EA0C0C64469C4240F00E
:1013E0003E81D1F804C0BCF1000F3DD0BCF1010F2B
:1013F00024D0BCF1020F2BD0BCF1030F4CD0BCF1B8
:10140000110F1FD0BCF1120F28D0DFF8A482C44501
:101410002AD0DFF8A082C44526D0DFF89C82C445DC
:1014200022D0DFF89882C4451ED0DFF89482C445EC
:101430001AD0DFF89082C44516D031E0D1F80CC044
:1014400066462DE0D1F80CC01CF1040C664627E07E
:10145000D1F80CC01CF1080C664621E0D1F80CC094
:101460001CF10C0C66461BE0D1F808C0BCF1000F63
:1014700003D15FF0040C66460DE0D1F808C0BCF162
:10148000010F04D15FF0080C6646036103E05FF0D2
:10149000080C6646436103E05FF0000C6646FFE718
:1014A000FF2C01D8070000E0071DFF2C02D85FEADF
:1014B000820E03E0B2F1080C5FEA8C0ED7F800C090
:1014C0005FF00F0818FA0EF83CEA080C16FA0EF84E
:1014D00058EA0C0CC7F800C0D1F804C05FEACC0C85
:1014E00040F1BD80DFF8E0C1DCF800C05CF0010C29
:1014F000DFF8D481C8F800C0DFF8CCC1DCF800C048
:101500001CF00108CDF80080DDF800C0DFF8BCC198
:101510005FEA92085CF828C065465FF00F0C12F095
:1015200003085FFA88F85FEA88081CFA08FC35EAC5
:101530000C05DFF89CC1604502D15FF0000C16E09D
:10154000DFF890C1604502D15FF0010C0FE0DFF8D9
:1015500088C1604502D15FF0020C08E0DFF87CC171
:10156000604502D15FF0030C01E05FF0040C12F063
:1015700003085FFA88F85FEA88081CFA08FC5CEA4E
:101580000505DFF848C15FEA92084CF82850D1F809
:1015900004C05FEACC3C0AD5DFF844C1DCF800C0E7
:1015A00054EA0C0CDFF83881C8F800C009E0DFF815
:1015B00030C1DCF800C03CEA040CDFF82481C8F834
:1015C00000C0D1F804C05FEA8C3C0AD5DFF814C132
:1015D000DCF800C054EA0C0CDFF80881C8F800C041
:1015E00009E0DFF800C1DCF800C03CEA040CDFF8D9
:1015F000F480C8F800C0D1F804C05FEACC2C0AD54A
:10160000DFF8E4C0DCF800C054EA0C0CDFF8D88046
:10161000C8F800C009E0DFF8D0C0DCF800C03CEA40
:10162000040CDFF8C480C8F800C0D1F804C05FEA39
:101630008C2C0AD5DFF8B4C0DCF800C054EA0C0CDE
:10164000DFF8A880C8F800C009E0DFF8A0C0DCF827
:1016500000C03CEA040CDFF89480C8F800C0521CBB
:10166000AAE6BDE8F1810200936889B20B4202D07C
:101670000123180001E000231800C0B27047D2B265
:10168000002A02D089B2016102E089B20B04036131
:10169000704710B4C3681A0089B211EA020389B214
:1016A00031EA020454EA0343036110BC70470000AE
:1016B0000000111000001210000021100000221084
:1016C00000003110000032101810024008000140E4
:1016D00000080140000C01400010014000140140CE
:1016E0000004014004040140080401400C040140CE
:1016F0002DE9F04104000025002600275FF00008D6
:10170000002C01D1012095E0A068002801D0207DA7
:101710000028A06A002807D10020E062002084F899
:1017200024002000FFF78FFB200000F0EFFA0500F7
:10173000A06AC00676D4EDB2002D73D1A06A30F451
:10174000885050F00200A0626068E1690843217B84
:1017500050EA41000743A068B0F5807F02D0A0683E
:10176000012802D14FF4807000E000200643207D64
:10177000012811D1207B002806D1A069401E40031A
:1017800050F40060064307E0A06A50F02000A06219
:10179000E06A50F00100E0622068406830F469407F
:1017A00030432168486020688068DFF82C150840C5
:1017B000384321688860A068B0F5807F02D0A068B7
:1017C000012802D14FF4807000E00020B0F5807F46
:1017D00003D12069401E000580462068C06A30F4AD
:1017E000700058EA00002168C86220688068DFF84D
:1017F000EC140840B84208D10020E062A06A30F042
:10180000020050F00100A06212E0A06A30F0020075
:1018100050F01000A062E06A50F00100E062012088
:10182000050005E0A06A50F01000A062012005004C
:101830002800C0B2BDE8F08138B50400002594F856
:101840002400012801D102208BE0012084F824002B
:10185000200000F006FA0500EDB2002D7CD1A06A50
:10186000DFF87C14084050F48070A0622068DFF834
:101870007414884209D1DFF87004006810F4702FE6
:1018800001D1012002E0002000E0012000280ED05C
:10189000A06A30F48010A06220684068400523D51B
:1018A000A06A30F4005050F48050A0621CE0A06A9E
:1018B00050F48010A0622068DFF83014884204D011
:1018C0002068DFF82014884205D1DFF81C04006886
:1018D00010F4806000E00020002805D0A06A30F4F9
:1018E000005050F48050A062A06AC00404D5E06AA1
:1018F00030F00600E06201E00020E062002084F8A1
:1019000024007FF00200216808602068806810F4DD
:101910006020B0F5602F18D12068DFF8C813884226
:1019200009D1DFF8C403006810F4702F01D1012041
:1019300002E0002000E00120002806D02068806836
:1019400050F4A0002168886009E02068806850F4A5
:1019500080102168886002E0002084F824002800BC
:10196000C0B232BD38B50400002594F82400012827
:1019700001D1022014E0012084F82400200000F0AE
:10198000C5F90500EDB2002D05D1A06A30F48850EC
:1019900050F00100A062002084F824002800C0B2AA
:1019A00032BDF8B504000D0000260020009000278D
:1019B000FFF74DF8060020688068C00508D5A06ACA
:1019C00050F02000A062002084F8240001209FE055
:1019D00020684068C0051FD42068C06A10F4700FEA
:1019E0001AD120680068800774D415F1010FF8D06F
:1019F000002D04D0FFF72BF8801B8542F1D2206820
:101A000000688007EDD4A06A50F00400A0620020B6
:101A100084F8240003207BE0022000F0A3FD21686D
:101A20000969DFF8CC22114215D12168C968DFF8B5
:101A3000C42211420FD121680969DFF8BC2211428A
:101A400007D12168C968DFF8B422114201D11421FD
:101A50001CE029211AE021680969DFF89C22114263
:101A600005D12168C968DFF8942211420BD02168A2
:101A70000969DFF88C22114207D12168C968DFF8B3
:101A80008022114201D1542100E0FC21DFF87422B0
:101A90001268B2FBF0F001FB00F70098B84219D2CF
:101AA00015F1010F12D0002D04D0FEF7D0FF801BDE
:101AB00085420BD20098B84208D2A06A50F00400C8
:101AC000A062002084F82400032021E00098401C3C
:101AD0000090E2E77FF0120021680860A06A50F4ED
:101AE0000070A0622068806810F46020B0F5602F5C
:101AF0000DD1207B00280AD1A06A30F48070A0624A
:101B0000A06AC00403D4A06A50F00100A0620020C3
:101B1000F2BD0068C06C704778B40200002300205A
:101B2000009092F82400012801D1022097E00120C2
:101B300082F824004868072812D21068406B1F24DE
:101B40004D686D1E05267543AC40A0430C684D687A
:101B50006D1E05267543AC4020431468606327E082
:101B600048680D2812D21068006B1F244D68ED1FC5
:101B700005267543AC40A0430C684D68ED1F052653
:101B80007543AC4020431468206311E01068C06ABC
:101B90001F244D680D3D05267543AC40A0430C68DD
:101BA0004D680D3D05267543AC4020431468E06246
:101BB00008680A2812D31068C06807240D680A3D17
:101BC00003267543AC40A0438C680D680A3D03268C
:101BD0007543AC4020431468E0600FE01068006972
:101BE00007240D6803267543AC40A0438C680D683C
:101BF00003267543AC402043146820610868102810
:101C000002D00868112825D11068384CA0421BD199
:101C10001068806800021DD41068806850F40000CD
:101C20001468A0600868102814D136480068364C43
:101C3000B0FBF4F00A24604300900098002809D01B
:101C40000098401E0090F8E7906A50F020009062E3
:101C500001200300002082F824001800C0B272BCEA
:101C6000704738B504000025002000902068806887
:101C7000C0072FD42068806850F001002168886078
:101C8000204800682049B0FBF1F00090009800283F
:101C900003D00098401E0090F8E7FEF7D8FE05003C
:101CA00020688068C00715D4FEF7D1FE401B0328CA
:101CB000F6D320688068C007F2D4A06A50F0100004
:101CC000A062E06A50F00100E062002084F8240085
:101CD000012000E0002032BDFDF7E1FFFE0E1FFFF6
:101CE000FEFDFFFF002801400424014000240140C4
:101CF00024499224244992009224491292244900B2
:101D0000499224004400002040420F0038B50400EE
:101D1000002520688068C0071FD5206880684008BB
:101D2000400021688860FEF792FE05002068806808
:101D3000C00712D5FEF78BFE401B0328F6D32068A0
:101D40008068C007F2D5A06A50F01000A062E06A77
:101D500050F00100E062012000E0002032BD0000F0
:101D6000002200F0A5BD0102F8B50400002C01D14D
:101D7000012038E22078C00740F18480DFF8940623
:101D8000006810F00C0004280BD0DFF8880600680B
:101D900010F00C0008280ED1DFF878060068C003A8
:101DA00009D5DFF86C06006880036BD560680028F1
:101DB00068D1012017E26068B0F5803F08D1DFF8F4
:101DC0005006006850F48030DFF84416086038E0B0
:101DD0006068002810D1DFF83806006830F48030E1
:101DE000DFF82C160860DFF82806006830F4802041
:101DF000DFF81C16086024E06068B0F5A02F10D151
:101E0000DFF80C06006850F48020DFF80416086044
:101E1000DFF8FC05006850F48030DFF8F415086046
:101E20000FE0DFF8EC05006830F48030DFF8E015F3
:101E30000860DFF8DC05006830F48020DFF8D0159A
:101E40000860606800280ED0FEF701FE0500DFF88C
:101E5000C0050068800315D4FEF7F9FD401B652816
:101E6000F5D30320BFE1FEF7F2FD0500DFF8A00582
:101E70000068800306D5FEF7EAFD401B6528F5D310
:101E80000320B0E1207880075CD5DFF88805006882
:101E900010F00C0F0BD0DFF87C05006810F00C0080
:101EA00008281AD1DFF86C050068C00315D4DFF8E4
:101EB00060050068800704D52069012801D0012051
:101EC00091E1DFF84C05006830F0F800616950EAF4
:101ED000C100DFF83C15086034E0206900281ED0FE
:101EE0000120DFF844150860FEF7B1FD0500DFF8BA
:101EF00020050068800706D4FEF7A9FD401B0328D3
:101F0000F5D303206FE1DFF80805006830F0F80032
:101F1000616950EAC100DFF8F814086012E000209F
:101F2000DFF804150860FEF792FD0500DFF8E00415
:101F30000068800706D5FEF78AFD401B0328F5D30D
:101F4000032050E1207800072CD5A069002816D086
:101F50000120DFF8D8140860FEF779FD0500DFF8EE
:101F6000C4040068800706D4FEF771FD401B0328F7
:101F7000F5D3032037E1012000F037FA12E000200A
:101F8000DFF8A8140860FEF762FD0500DFF894048E
:101F90000068800706D5FEF75AFD401B0328F5D3DD
:101FA000032020E12078400740F1A7800027DFF8D8
:101FB00080040068C00010D4DFF87404006850F09A
:101FC0008050DFF86C140860DFF86404006810F0DB
:101FD00080500090009801200700DFF85804006846
:101FE000C00516D4DFF84C04006850F48070DFF8A8
:101FF00044140860FEF72BFD0500DFF83804006884
:10200000C00506D4FEF723FD401B6528F5D3032049
:10201000E9E0E068012808D1DFF81C04006850F00E
:102020000100DFF81414086037E0E068002810D1E0
:10203000DFF80404006840084000DFF8FC13086083
:10204000DFF8F403006830F00400DFF8EC130860F8
:1020500023E0E068052810D1DFF8DC03006850F0C9
:102060000400DFF8D4130860DFF8CC03006850F0F8
:102070000100DFF8C41308600FE0DFF8BC0300685C
:1020800040084000DFF8B0130860DFF8AC030068D8
:1020900030F00400DFF8A0130860E068002810D0DA
:1020A000FEF7D5FC0500DFF890030068800719D41F
:1020B000FEF7CDFC401B41F289318842F3D3032067
:1020C00091E0FEF7C4FC0500DFF86C0300688007B0
:1020D00008D5FEF7BCFC401B41F289318842F3D39E
:1020E000032080E0FFB2012F07D1DFF8440300682E
:1020F00030F08050DFF838130860E069002871D0B4
:10210000DFF81003006810F00C00082855D0E069D3
:1021100002283FD10020DFF824130860FEF797FC67
:102120000500DFF8EC020068800106D5FEF78FFCA1
:10213000401B0328F5D3032055E0206AB0F5803F0B
:1021400009D1DFF8D002006830F40030A1680843FC
:10215000DFF8C0120860DFF8BC02006830F47410C9
:10216000216A0843616A0843DFF8A8120860012069
:10217000DFF8C8120860FEF76AFC0500DFF890027D
:10218000006880012ED4FEF762FC401B0328F5D3C3
:10219000032028E00020DFF8A4120860FEF757FCB7
:1021A0000500DFF86C02006880011BD5FEF74FFCCC
:1021B000401B0328F5D3032015E0E069012801D175
:1021C000012010E0DFF84C020068060016F48030B1
:1021D000216A884204D116F47010616A884201D0E5
:1021E000012000E00020F2BD70B504000D00002CBD
:1021F00001D10120AEE0DFF84802006810F00700CE
:10220000A84211D2DFF838020068C008C000284395
:10221000DFF82C120860DFF82802006810F00700D1
:10222000A84201D0012095E0207880071FD52078B2
:10223000400707D5DFF8DC01006850F4E060DFF804
:10224000D41108602078000707D5DFF8C8010068BE
:1022500050F46050DFF8BC110860DFF8B801006886
:1022600030F0F000A1680843DFF8A811086020787A
:10227000C00733D56068012805D165480068800330
:1022800010D4012066E06068022805D1604800682B
:10229000800107D401205DE05D480068800701D41B
:1022A000012057E05B4800688008800061680843AF
:1022B00058490860FEF7CBFB06005648006810F04E
:1022C0000C006168B0EB810F08D0FEF7C0FB801BEB
:1022D00041F289318842F0D303203BE0584800683E
:1022E00010F0070085420ED255480068C008C000B3
:1022F0002843534908605248006810F00700A8427C
:1023000001D0012026E02078400707D54148006829
:1023100030F4E060E16808433E4908602078000737
:1023200008D53C48006830F46050216950EAC1008B
:102330003849086000F00FF84249364A1268C2F383
:102340000312515CC8403549086035480068FEF703
:1023500056FB002070BD70B586B001A83A49102226
:1023600000F0C0FA39480088ADF8000000210022D2
:10237000002300240020274D2D68290011F00C05B2
:10238000042D02D0082D03D01DE0234D28001CE0B1
:1023900001ADC1F38346755D2C00CD030DD56D46AF
:1023A0001C4E3668C6F34046755D2A001A4D05FB83
:1023B00004F5B5FBF2F52B0003E0254D05FB04F514
:1023C0002B00180001E0144D280006B070BD134822
:1023D0000068704780B5FFF7FAFF1E490D4A126882
:1023E000C2F3C222515CC84002BD81B00B490968EA
:1023F000C9084FF47A72B1FBF2F101FB00F10091D0
:1024000000BF00994A1E00920029F9D101B070471F
:10241000001002400410024000127A004400002024
:10242000400000202410024000004242800442424A
:102430001C10024000700040201002406000424228
:1024400000200240A42A0008842A0008AE130008D5
:1024500000093D00D02A0008F8B504000025002638
:102460002078C00766D500277F480068C0000DD4DB
:102470007D48006850F080507B4908607A480068C9
:1024800010F0805000900098012007007748006805
:10249000C00513D47548006850F480707349086013
:1024A000FEF7D5FA050071480068C00506D4FEF7AE
:1024B000CEFA401B6528F6D3032052E06C48006832
:1024C00010F440700600002E23D0606810F44070B5
:1024D00086421ED06648006830F440700600012035
:1024E0006449086000206349086061480660F0079D
:1024F0000FD5FEF7ACFA05005D480068800708D4E8
:10250000FEF7A5FA401B41F289318842F4D303203B
:1025100027E05748006830F4407061680843544928
:102520000860FFB2012F05D14F48006830F080509D
:102530004D4908602078800707D54F48006830F47F
:102540004040A16808434C4908602078C00607D580
:102550004948006830F48000E16808434649086053
:102560000020F2BD2DE9F04385B0040001A84349E5
:10257000102200F0B7F942480088ADF800000025AD
:10258000002600275FF000085FF000092000012806
:1025900032D0022858D0102862D1374800688046CF
:1025A00038480068C00126D501A8C8F38341085CFB
:1025B00007005FEAC8300FD568462F490968C1F3A4
:1025C0004041085C05005FEAC83009D52E48B0FBE1
:1025D000F5F07843060003E02C4800FB07F0060006
:1025E00025480068400201D5B14604E0700003218F
:1025F000B0FBF1F0814633E01D480068804640F2B0
:10260000023010EA0800B0F5817F03D14FF400409A
:10261000814618E018F44070B0F5007F07D11C48DF
:102620000068800703D549F6404081460BE018F466
:102630004070B0F5407F06D112480068800302D593
:102640004FF2244081460BE0FFF7C4FE0A490968B7
:10265000C1F38131491C4900B0FBF1F08146FFE72D
:10266000484605B0BDE8F0831C10024000700040F1
:10267000201002404004424204100240942A000804
:10268000661D00080010024000127A0000093D009B
:102690002410024010F00702474B1B6819004FF648
:1026A000FF031940454B53EA02231943424B19607B
:1026B000704741480068C0F30220704740B20028CC
:1026C00008D4012110F01F0291403D4A40B2430955
:1026D00042F82310704710B440B2002804D40A0115
:1026E000384B40B2C25407E00A01374B40B210F0F9
:1026F0000F04E31803F8042C10BC704770B40300F7
:1027000013F00704D4F10706052E01D3042001E0DD
:10271000D4F10700261D072E01D2002500E0E51E9A
:10272000012616FA00F0401E0840A8400121A940E9
:10273000491E1140084370BC704710B50400601E6C
:10274000B0F1807F01D301200EE0601E1F490860B8
:102750000F215FF0FF30FFF7BEFF00201C4908602B
:1027600007201C490860002010BD10B5040020009F
:10277000FFF790FF10BDF8B504000D00160000270C
:10278000FFF797FF0700320029003800FFF7B6FF78
:102790000100200040B2FFF79EFFF1BD10B504001C
:1027A000200040B2FFF78AFF10BD10B504002000E2
:1027B000FFF7C3FF10BD00000CED00E00000FA05BC
:1027C00000E100E000E400E018ED00E014E000E0CB
:1027D00018E000E010E000E081B01148006850F01F
:1027E00001000F4908600E48006810F001000090D9
:1027F00000980C48006850F080500A490860094869
:10280000006810F08050009000980749096808009F
:1028100030F0E06050F000700349086001B070478C
:10282000181002401C1002400400014030B40200A5
:1028300092F83C00012801D102202EE0012082F80C
:102840003C00022082F83D001068406804001068D7
:102850008068030034F07004086804431068446022
:1028600010680F4DA8420BD01068B0F1804F07D010
:1028700010680C4DA84203D010680B4DA84205D13A
:1028800033F080034868034310688360012082F8B6
:102890003D00002082F83C00002030BC7047000062
:1028A000002C0140000400400008004070477047C1
:1028B00000B500BF130096469446103928BFA0E823
:1028C0000C50FAD85FEA417C28BF0CC048BF40F8E2
:1028D000042BC90728BF20F8022B48BF00F8012BA2
:1028E00000BD0000103A07D330B4B1E83810103AF8
:1028F000A0E83810F9D230BC530724BFB1E8081063
:10290000A0E8081044BF51F8043B40F8043BD2074C
:1029100024BF31F8022B20F8022B44BF0B78037040
:102920007047083A07D3B1E80810083A40F8043B6A
:1029300040F804CBF7D25307E4E70000FEE7FEE7D8
:10294000FEE7FEE7FEE770477047704780B5FEF789
:1029500076F801BD80B50748FEF77AFB01BD80B56A
:102960000548FEF775FB01BD80B50448FEF770FB16
:1029700001BD000058080020A0080020E808002041
:1029800019E050F8041BCB0744BFA9F10103591803
:10299000121F0023042A41F8043BF9D25FEA827C2B
:1029A0000B4604D54FF0000CA1F800C09B1CD107CA
:1029B00044BF0021197050F8042B002AE1D1704760
:1029C00030B5016842688468091801EB5203D207E8
:1029D00048BF4C440C30994200D130BD11F9012B55
:1029E00011F8015B002A04F8015B02D5521CF9D1F1
:1029F000F1E7521EF4D5EEE710B5074979441831D6
:102A0000064C7C44163404E00A68081D51188847B7
:102A10000146A142F8D110BD0800000024000000CA
:102A200061FFFFFF2801000058080020000000009F
:102A300091FFFFFF5E010000760000000000002013
:102A400000F00BF8002801D0FFF7D6FF0020C046A9
:102A5000C046FDF74BFB00F002F80120704700F084
:102A600001B800000746384600F002F8FBE7000016
:102A700080B5C046C046024A11001820ABBEFBE735
:102A80002600020002030405060708090A0B0C0DC4
:102A90000E0F101002030405060708090A0B0C0D9F
:102AA0000E0F1010000000000000000001020304DF
:102AB000060708090148804701480047912B000894
:102AC000C52A0008C046C046C046C046FFF7B8FF4A
:102AD00000000000010203040000000000000000EC
:102AE00000000000000000000000000000000000E6
:102AF000FFF7FEBFFFF7FEBFFFF7FEBFFFF7FEBF0A
:102B0000FFF7FEBFFFF7FEBFFFF7FEBFFFF7FEBFF9
:102B1000FFF7FEBFFFF7FEBFFFF7FEBFFFF7FEBFE9
:102B2000FFF7FEBFFFF7FEBFFFF7FEBFFFF7FEBFD9
:102B3000FFF7FEBFFFF7FEBFFFF7FEBFFFF7FEBFC9
:102B4000FFF7FEBFFFF7FEBFFFF7FEBFFFF7FEBFB9
:102B5000FFF7FEBFFFF7FEBFFFF7FEBFFFF7FEBFA9
:102B6000FFF7FEBFFFF7FEBFFFF7FEBFFFF7FEBF99
:102B7000FFF7FEBFFFF7FEBFFFF7FEBFFFF7FEBF89
:102B8000FFF7FEBFFFF7FEBFFFF7FEBFFFF7FEBF79
:102B90007047F701FE00FB01070000010000010083
:102BA00001FC00130101000101000001010000010E
:102BB0000001000001000001FD000001FD00FC011A
:0D2BC000FC00010110FC000224F400F501EE
:0400000508002AC500
:00000001FF
